S00D000054785F4D332E737265636C
S11300000C9434000C9446000C9446000C94460066
S11300100C9446000C9446000C9446000C94460044
S11300200C9446000C9446000C9446000C94460034
S11300300C9446000C9446000C9446000C94460024
S11300400C9446000C9446000C94F1000C9410019E
S11300500C9446000C94A6000C9446000C944600A4
S11300600C9446000C94460011241FBECFEFD8E038
S1130070DEBFCDBF11E0A0E0B1E001C01D92A1320E
S1130080B107E1F70E9448000C9450010C94000061
S1130090EF92FF920F931F930E948F008CE090E0E9
S11300A00E94DB0078940F2EFBE0FF2EF02D0EE76C
S11300B00F2EFAE0EF2EF02D1FEF0E949D000E94FC
S11300C0C70080931F01882334F4E0922001880F35
S11300D080931F010AC08F3740F4F0922001902FC3
S11300E0981B892F880F80931F0180911F018630F0
S11300F018F410921F0104C08A3F10F010931F01DE
S1130100809120010E943B0180911F010E943B01CC
S113011087EA91E60197F1F700C00000CECFECE743
S1130120F0E0808181648083808180628083EAE75B
S1130130F0E080818E6880830895EAE7F0E08081B2
S11301408064808381E080930A0108951F920F9256
S11301500FB60F9211248F939F93EF93FF93909177
S11301607900809100018F5F877080930001E2E045
S1130170F1E0E80FF11D908310920A01FF91EF91D5
S11301809F918F910F900FBE0F901F901895909193
S11301900001809101019817D1F3809101018F5FD3
S11301A087708093010180910101E2E0F1E0E80FA2
S11301B0F11D808108959093C5008093C40082E06E
S11301C08093C00088E98093C10086E08093C200D8
S11301D0109216011092150110920C0110920B014D
S11301E008951F920F920FB60F9211248F939F932D
S11301F0EF93FF939091C600809115018F5F8770F4
S113020080931501E7E1F1E0E80FF11D9083FF9180
S1130210EF919F918F910F900FBE0F901F901895A3
S11302201F920F920FB60F9211248F939F93EF9307
S1130230FF9390910B0180910C01981771F08091BC
S11302400C018F5F877080930C01EDE0F1E0E80F03
S1130250F11D80818093C60005C0E1ECF0E080814F
S11302608F7D8083FF91EF919F918F910F900FBEAF
S11302700F901F90189520910B012F5F277090917C
S11302800C012917E1F3EDE0F1E0E20FF11D8083A9
S113029020930B01E1ECF0E080818062808308957B
S10702A0F894FFCFFC
S9030000FC
