:100000000C9434000C9404010C9451000C94510095
:100010000C94B1030C9451000C9451000C94750392
:100020000C9451000C9451000C9451000C9451000C
:100030000C9451000C9451000C9451000C945100FC
:100040000C9451000C9451000C94E4030C9407049C
:100050000C9451000C9432010C9451000C945100FA
:100060000C9451000C94510011241FBECFEFD8E026
:10007000DEBFCDBF11E0A0E0B1E0E8E9F9E002C0E9
:1000800005900D92AC35B107D9F711E0ACE5B1E0C0
:1000900001C01D92AD37B107E1F70E9453000C94E7
:1000A000CA040C9400004F925F926F927F928F92DD
:1000B0009F92AF92BF92CF92DF92EF92FF920F93F7
:1000C0001F93CF93DF930E948E010E9472010E94C2
:1000D00074020E944A028CE090E00E94CE030E94CB
:1000E000E90178940E94EC0110925D01CDE1D1E02C
:1000F00003E711E00F2EFEE2EF2EF1E0FF2EF02DD0
:100100000F2EF0E0CF2EF1E0DF2EF02D0F2EF1E1DB
:10011000AF2EF1E0BF2EF02D0F2EF7E38F2EF1E082
:100120009F2EF02D0F2EFEE46F2EF1E07F2EF02D8E
:100130000F2EF6E44F2EF1E05F2EF02D0E943204D8
:100140008A3029F40E94320487BD18BC04C017BC51
:100150000E94320488BD0E945B0280935C018F3054
:1001600050F488EB91E044EF51E060E070E00E94D1
:10017000830217BC18BC80915D01813091F0813001
:1001800018F08230B9F520C080E80E94A801C601AD
:100190000E94DA0180EC0E94A801C5010E94DA01E8
:1001A00029C00E94880180E80E94A801CE010E9417
:1001B000DA0180EC0E94A801D8018C910E942702EC
:1001C000C7010E94DA0116C080E80E94A801C4019C
:1001D0000E94DA0180EC0E94A80180915C018E31BE
:1001E00030F40E942702C2010E94DA0103C0C30159
:1001F0000E94DA018FED92E2A2E081509040A0408F
:10020000E1F700C000009ACF1F920F920FB60F9235
:1002100011242F933F934F935F936F937F938F930B
:100220009F93AF93BF93EF93FF930E9446028091F9
:100230005D01823019F410925D0103C08F5F8093DD
:100240005D01FF91EF91BF91AF919F918F917F9150
:100250006F915F914F913F912F910F900FBE0F9033
:100260001F9018951F920F920FB60F9211242F9383
:100270003F934F935F936F937F938F939F93AF932E
:10028000BF932091780030917900309376012093CC
:1002900075014BE250E0249FC001259F900D349FD3
:1002A000900D112468E270E00E946304709378015D
:1002B00060937701CB016BE070E00E946304709360
:1002C000740160937301BF91AF919F918F917F9162
:1002D0006F915F914F913F912F910F900FBE0F90B3
:1002E0001F901895ECE7F0E08081816C8083EAE74D
:1002F000F0E080818B6E8083EBE7F0E080818260AC
:100300008083E9E6F0E0808183608083E89A089545
:10031000EAE7F0E080818064808308955E985D98CC
:10032000569A559A84B5836084BD85B5826085BD33
:1003300016BC84B5806A84BD17BC18BC08952D9A7C
:100340008AEF8A95F1F72D988AEF8A95F1F708954B
:100350001F93182F2C9885B1807F85B985B1912F77
:1003600092959F70892B85B90E949F0185B1807FEE
:1003700085B985B11F70182B15B90E949F011F9177
:1003800008951F93182F2C9A85B1807F85B985B168
:10039000912F92959F70892B85B90E949F0185B1FD
:1003A000807F85B985B11F70182B15B90E949F01F8
:1003B0001F910895CF93DF93EC018881882331F05A
:1003C00021960E94C10189918823D9F7DF91CF91AD
:1003D00008958FEF84B9089585B1807F85B985B17F
:1003E000836085B90E949F018BED95E00197F1F73D
:1003F00000C0000085B1807F85B985B1836085B973
:100400000E949F0195E19A95F1F7000085B1807FE8
:1004100085B985B1836085B90E949F0185B1807FD0
:1004200085B9299A0E949F0183EF91E00197F1F726
:1004300000C0000088E20E94A8018CE00E94A80190
:1004400081E00E94A80186E00E94A80108950F9310
:100450001F93DF93CF9300D000D0CDB7DEB799279D
:1004600087FD90958E010F5F1F4FB8014AE050E065
:100470000E949904C8010E94DA010F900F900F901A
:100480000F90CF91DF911F910F91089581E00E940D
:10049000A80108953C9AE8E6F0E0808182608083BC
:1004A000ECE6F0E080818062808378941092850091
:1004B0001092840008954498449A83E08A95F1F755
:1004C00000C0449886B13599FECFE4E8F0E0808121
:1004D0009181109281001182108267E070E00E9489
:1004E0006304862F972F0895E0EBF0E0808182600F
:1004F0008083E1EBF0E08081816080831092B20024
:100500001092B40008952F923F924F925F926F9293
:100510007F928F929F92AF92BF92CF92DF92EF9293
:10052000FF920F931F93CF93DF93EC011A012B01DE
:100530005B98539A5C01CC24DD2460E271EA87E089
:1005400090E0A60195010E94770439014A017901E2
:100550008A010894E108F108010911098FEFE816F2
:10056000F1040105110509F008F47DC064E274EF9F
:1005700080E090E0A60195010E94770479018A014C
:100580000894E108F108010911098FEFE816F10458
:100590000105110509F008F468C069E07DE380E019
:1005A00090E0A60195010E94770479018A010894E0
:1005B000E108F108010911098FEFE816F1040105BE
:1005C000110509F008F453C084017301689415F80B
:1005D00016950795F794E7941694D1F70894E108D7
:1005E000F108010911098FEFE816F1040105110561
:1005F00009F008F43EC084017301689416F816955A
:100600000795F794E7941694D1F70894E108F10858
:10061000010911098FEFE816F1040105110559F1DF
:1006200050F11127092DF82CE72C0894E108F10866
:10063000010911098FEFE816F10401051105E9F030
:10064000E0F0840173010D2EDAE016950795F7941A
:10065000E794DA95D1F7D02D0894E108F108010963
:10066000110987E00BC081E009C082E007C083E088
:1006700005C084E003C085E001C086E0E1EBF0E066
:100680009081987F892B8083CC0FDD1FBE0180E095
:1006900090E0A20191010E94440428EE33E040E082
:1006A00050E00E947704E092B300209379013093E8
:1006B0007A0140937B0150937C01E0E7F0E0808178
:1006C00082608083DF91CF911F910F91FF90EF9017
:1006D000DF90CF90BF90AF909F908F907F906F9062
:1006E0005F904F903F902F9008951F920F920FB6FA
:1006F0000F9211242F938F939F93AF93BF93EF93F8
:10070000FF938091790190917A01A0917B01B09142
:100710007C010097A105B10551F04B9A18161906F6
:100720001A061B0654F40197A109B10906C0E0E7B7
:10073000F0E020812D7F20835B9880937901909356
:100740007A01A0937B01B0937C01FF91EF91BF915F
:10075000AF919F918F912F910F900FBE0F901F908F
:1007600018951F920F920FB60F9211248F938091BC
:100770005E01882339F482E08093810081E08093D8
:100780005E0106C0813021F41092810010925E015A
:100790008F910F900FBE0F901F9018959093C500EA
:1007A0008093C40082E08093C00088E98093C100F8
:1007B00086E08093C20010926A0110926901109243
:1007C000600110925F0108951F920F920FB60F9271
:1007D00011242F938F939F93EF93FF939091C600D3
:1007E000809169018F5F87708093690120916A0110
:1007F000EBE6F1E0E80FF11D9083FF91EF919F91FF
:100800008F912F910F900FBE0F901F9018951F92F0
:100810000F920FB60F9211248F939F93EF93FF9334
:1008200090915F0180916001981771F08091600153
:100830008F5F877080936001E1E6F1E0E80FF11DC2
:1008400080818093C60005C0E1ECF0E080818F7D5F
:100850008083FF91EF919F918F910F900FBE0F902A
:100860001F9018959091690180916A019817D1F3B2
:1008700080916A018F5F877080936A01EBE6F1E0F7
:10088000E80FF11D80810895629FD001739FF001F0
:10089000829FE00DF11D649FE00DF11D929FF00D10
:1008A000839FF00D749FF00D659FF00D9927729F47
:1008B000B00DE11DF91F639FB00DE11DF91FBD01D2
:1008C000CF0111240895AA1BBB1B51E107C0AA1F29
:1008D000BB1FA617B70710F0A61BB70B881F991FE1
:1008E0005A95A9F780959095BC01CD010895A1E294
:1008F0001A2EAA1BBB1BFD010DC0AA1FBB1FEE1F9A
:10090000FF1FA217B307E407F50720F0A21BB30BE4
:10091000E40BF50B661F771F881F991F1A9469F760
:1009200060957095809590959B01AC01BD01CF01BC
:100930000895FB019F01E8944230C4F04532B4F4BD
:100940004A3029F497FB1EF4909581959F4F642FB0
:1009500077270E946304805D8A330CF0895D819360
:10096000CB010097A1F716F45DE251931082C90103
:100970000C94BA04DC01FC01672F71917723E1F735
:10098000329704C07C916D9370836291AE17BF075C
:08099000C8F30895F894FFCFAD
:1009980020204269656E76656E69646F7321202038
:1009A800002020202061205554454320004E6976C0
:1009B800656C3A202020202020202020200020259F
:1009C8002020202020200044697374616E636961CF
:1009D8003A202020200020636D2020202000203E87
:0C09E80020333020636D20202020000010
:00000001FF
