S0100000536B6174655F4D312E737265633F
S11300000C9434000C94F2000C9451000C945100A4
S11300100C94AD030C9451000C9451000C94710396
S11300200C9451000C9451000C9451000C94510008
S11300300C9451000C9451000C9451000C945100F8
S11300400C9451000C9451000C94E0030C940304A0
S11300500C9451000C9420010C9451000C94510008
S11300600C9451000C94510011241FBECFEFD8E022
S1130070DEBFCDBF11E0A0E0B1E0E0EFFEE002C0E2
S113008005900D92AE33B107D9F711E0AEE3B1E0BC
S113009001C01D92AF35B107E1F70E9453000C94E3
S11300A076070C9400006F927F928F929F92AF928A
S11300B0BF92CF92DF92EF92FF920F931F93CF9351
S11300C0DF930E9476010E9460010E9470020E94E8
S11300D046028CE090E00E94CA030E94D101789409
S11300E00E94D40110923F01C2E2D1E005E511E083
S11300F00F2EF9E2EF2EF1E0FF2EF02D0F2EF0E09F
S1130100CF2EF1E0DF2EF02D0F2EF1E1AF2EF1E036
S1130110BF2EF02D0F2EFCE28F2EF1E09F2EF02D3E
S11301200F2EF7E36F2EF1E07F2EF02D0E942E04A8
S11301308A3029F40E942E0487BD18BC04C017BC61
S11301400E942E0488BD0E94570280933E018F3086
S113015040F488EB91E044EF51E060E070E00E94ED
S11301607F0280913F01813091F0813018F082301C
S113017079F51EC080E80E949001C6010E94C20168
S113018080EC0E949001C5010E94C20121C080E858
S11301900E949001CE010E94C20180EC0E94900155
S11301A0D8018C910E940F02C7010E94C20110C0A5
S11301B080E80E949001C4010E94C20180EC0E9468
S11301C0900180913E010E940F02C3010E94C2016E
S11301D08FED92E2A2E081509040A040E1F700C090
S11301E00000A4CF1F920F920FB60F9211242F93E9
S11301F03F934F935F936F937F938F939F93AF93AB
S1130200BF93EF93FF930E94420280913F0182309B
S113021019F410923F0103C08F5F80933F01FF9157
S1130220EF91BF91AF919F918F917F916F915F916A
S11302304F913F912F910F900FBE0F901F901895E3
S11302401F920F920FB60F9211242F933F934F9347
S11302505F936F937F938F939F93AF93BF932091FB
S113026078003091790030935801209357014BE284
S113027050E0249FC001259F900D349F900D1124C0
S113028068E270E00E945F0470935A016093590120
S1130290CB016BE070E00E945F04709356016093A1
S11302A05501BF91AF919F918F917F916F915F9114
S11302B04F913F912F910F900FBE0F901F90189563
S11302C0ECE7F0E08081816C8083EAE7F0E08081F4
S11302D08B6E8083EBE7F0E0808182608083E9E6C7
S11302E0F0E0808183608083E89A08955E985D9849
S11302F0569A559A84B5836084BD85B5826085BD60
S113030016BC84B5806A84BD17BC18BC08952D9AA8
S11303108AEF8A95F1F72D988AEF8A95F1F7089577
S11303201F93182F2C9885B1807F85B985B1912FA3
S113033092959F70892B85B90E94870185B1807F32
S113034085B985B11F70182B15B90E9487011F91BB
S113035008951F93182F2C9A85B1807F85B985B194
S1130360912F92959F70892B85B90E94870185B141
S1130370807F85B985B11F70182B15B90E9487013C
S11303801F910895CF93DF93EC018881882331F086
S113039021960E94A90189918823D9F7DF91CF91F1
S11303A008958FEF84B9089585B1807F85B985B1AB
S11303B0836085B90E9487018BED95E00197F1F781
S11303C000C0000085B1807F85B985B1836085B99F
S11303D00E94870195E19A95F1F7000085B1807F2D
S11303E085B985B1836085B90E94870185B1807F15
S11303F085B9299A0E94870183EF91E00197F1F76B
S113040000C0000088E20E9490018CE00E949001EC
S113041081E00E94900186E00E94900108950F936C
S11304201F93DF93CF9300D0CDB7DEB700D000D0B9
S113043000D0EDB7FEB731968E010F5F1F4FADB7F9
S1130440BEB712961C930E9311972BE331E03383BE
S11304502283992787FD9095958384830E94950430
S11304608DB79EB706960FB6F8949EBF0FBE8DBF8C
S1130470C8010E94C2010F900F90CF91DF911F918C
S11304800F91089581E00E94900108953C9AE8E656
S1130490F0E0808182608083ECE6F0E0808180621D
S11304A08083789410928500109284000895449873
S11304B0449A83E08A95F1F700C0449886B135994F
S11304C0FECFE4E8F0E080819181109281001182F6
S11304D0108267E070E00E945F04862F972F0895D2
S11304E0E0EBF0E0808182608083E1EBF0E08081EA
S11304F0816080831092B2001092B40008952F920C
S11305003F924F925F926F927F928F929F92AF929F
S1130510BF92CF92DF92EF92FF920F931F93CF93EC
S1130520DF93EC011A012B015B98539A5C01CC24F4
S1130530DD2460E271EA87E090E0A60195010E9463
S1130540730439014A0179018A010894E108F10828
S1130550010911098FEFE816F1040105110509F0ED
S113056008F47DC064E274EF80E090E0A601950198
S11305700E94730479018A010894E108F1080109D1
S113058011098FEFE816F1040105110509F008F4CB
S113059068C069E07DE380E090E0A60195010E94D7
S11305A0730479018A010894E108F1080109110929
S11305B08FEFE816F1040105110509F008F453C0A2
S11305C084017301689415F816950795F794E794D8
S11305D01694D1F70894E108F108010911098FEF85
S11305E0E816F1040105110509F008F43EC0840180
S11305F07301689416F816950795F794E794169482
S1130600D1F70894E108F108010911098FEFE81600
S1130610F1040105110559F150F11127092DF82CA8
S1130620E72C0894E108F108010911098FEFE81695
S1130630F10401051105E9F0E0F0840173010D2EC8
S1130640DAE016950795F794E794DA95D1F7D02D6B
S11306500894E108F1080109110987E00BC081E061
S113066009C082E007C083E005C084E003C085E0E0
S113067001C086E0E1EBF0E09081987F892B8083D4
S1130680CC0FDD1FBE0180E090E0A20191010E9429
S1130690400428EE33E040E050E00E947304E0920E
S11306A0B30020935B0130935C0140935D01509350
S11306B05E01E0E7F0E0808182608083DF91CF918A
S11306C01F910F91FF90EF90DF90CF90BF90AF906C
S11306D09F908F907F906F905F904F903F902F905E
S11306E008951F920F920FB60F9211242F938F9398
S11306F09F93AF93BF93EF93FF9380915B0190918E
S11307005C01A0915D01B0915E010097A105B10566
S113071051F04B9A181619061A061B0654F4019741
S1130720A109B10906C0E0E7F0E020812D7F208314
S11307305B9880935B0190935C01A0935D01B093FF
S11307405E01FF91EF91BF91AF919F918F912F9196
S11307500F900FBE0F901F9018951F920F920FB617
S11307600F9211248F9380914001882339F482E001
S11307708093810081E08093400106C0813021F4A0
S113078010928100109240018F910F900FBE0F9034
S11307901F9018959093C5008093C40082E08093C5
S11307A0C00088E98093C10086E08093C200109263
S11307B04C0110924B011092420110924101089594
S11307C01F920F920FB60F9211242F938F939F9322
S11307D0EF93FF939091C60080914B018F5F8770D8
S11307E080934B0120914C01EDE4F1E0E80FF11D01
S11307F09083FF91EF919F918F912F910F900FBE56
S11308000F901F9018951F920F920FB60F921124FC
S11308108F939F93EF93FF939091410180914201B5
S1130820981771F0809142018F5F87708093420125
S1130830E3E4F1E0E80FF11D80818093C60005C078
S1130840E1ECF0E080818F7D8083FF91EF919F91B7
S11308508F910F900FBE0F901F90189590914B01A0
S113086080914C019817D1F380914C018F5F877070
S113087080934C01EDE4F1E0E80FF11D80810895CF
S1130880629FD001739FF001829FE00DF11D649F70
S1130890E00DF11D929FF00D839FF00D749FF00DFC
S11308A0659FF00D9927729FB00DE11DF91F639F9D
S11308B0B00DE11DF91FBD01CF0111240895AA1B3C
S11308C0BB1B51E107C0AA1FBB1FA617B70710F037
S11308D0A61BB70B881F991F5A95A9F78095909569
S11308E0BC01CD010895A1E21A2EAA1BBB1BFD0178
S11308F00DC0AA1FBB1FEE1FFF1FA217B307E407FB
S1130900F50720F0A21BB30BE40BF50B661F771F52
S1130910881F991F1A9469F7609570958095909532
S11309209B01AC01BD01CF010895AEE0B0E0EBE95D
S1130930F4E00C944D070D891E8986E08C831A839C
S113094009838FEF9FE79E838D839E01275E3F4F30
S1130950CE0101966F89788DA9010E94B804EF81B8
S1130960F885E00FF11F10822E96E4E00C946907DD
S1130970ACE0B0E0EEEBF4E00C943F076C011B013B
S11309808A01FC0117821682838181FFD1C12E0165
S11309900894411C511CF6019381F10193FD85914A
S11309A093FF81911F01882309F4BEC1853239F474
S11309B093FD859193FF81911F01853229F490E085
S11309C0B6010E94B506E7CFEE24FF2420E02032D2
S11309D0B0F48B3269F08C3228F4803251F08332D7
S11309E071F40BC08D3239F0803349F421602CC08E
S11309F02260246029C0286027C0206125C027FD0B
S1130A002CC0382F30533A3098F426FF08C08E2D6E
S1130A10880FE82EEE0CEE0CE80EE30E15C08F2DB9
S1130A20880FF82EFF0CFF0CF80EF30E20620CC09A
S1130A308E3221F426FD78C1206406C08C3611F470
S1130A40206802C0883649F4F10193FD859193FF33
S1130A5081911F01882309F0BACF982F95549330C0
S1130A6018F09052933028F40C5F1F4FFFE3F98382
S1130A700DC0833631F0833771F0833509F060C0DF
S1130A8022C0F801808189830E5F1F4F420171E00B
S1130A90A72EB12C16C062E0662E712C600E711E5A
S1130AA0F8018080918026FF03C06E2D70E002C0A3
S1130AB06FEF7FEFC4012C870E94AA065C018301BB
S1130AC02C852F7717C052E0652E712C600E711E95
S1130AD0F8018080918026FF03C06E2D70E002C073
S1130AE06FEF7FEFC4012C870E949F065C012C8569
S1130AF02068830123FD20C008C080E290E0B60195
S1130B002C870E94B506FA942C858F2D90E0A816A8
S1130B10B90698F311C0F40127FD859127FF81914F
S1130B204F0190E0B6012C870E94B5062C85F11088
S1130B30FA940894A108B108A114B10461F7F1C0B2
S1130B40843611F0893649F527FF08C0F801608121
S1130B507181828193810C5F1F4F09C0F80160810C
S1130B607181882777FD8095982F0E5F1F4F4FE680
S1130B70B42EB22297FF09C0909580957095619527
S1130B807F4F8F4F9F4FF0E8BF2AA2012AE030E049
S1130B900E94E106782E741845C0853731F43FEE83
S1130BA0B32EB2222AE030E025C099EFB92EB2224A
S1130BB08F36C1F0803720F4883509F0B5C00DC0F8
S1130BC0803721F0883709F0AFC002C020E1B22A93
S1130BD0B4FE0BC084E0B82A08C0B4FE09C0E6E045
S1130BE0BE2A06C028E030E005C020E130E002C0A3
S1130BF020E132E0B7FE08C0F80160817181828192
S1130C0093810C5F1F4F07C0F8016081718180E000
S1130C1090E00E5F1F4FA2010E94E106782E741827
S1130C20FFE7BF22B6FE0BC02EEFB2227E1438F4CB
S1130C30B4FE07C0B2FC05C08FEEB82202C0A72CD8
S1130C4001C0AE2C8B2D90E0B4FE0DC0FE01E70D6B
S1130C50F11D2081203319F4E9EEBE2209C0A394CA
S1130C60B2FE06C004C086789070009709F0A39481
S1130C708B2C9924B3FC14C0B0FE0FC0AF1428F41D
S1130C80E72CEF0CEA18AF2C08C0E72C06C080E272
S1130C9090E0B6010E94B506A394AF14C0F304C05B
S1130CA0AF1410F4FA1801C0FF2484FE0FC080E3CF
S1130CB090E0B6010E94B50682FE1FC081FE03C00B
S1130CC088E590E010C088E790E00DC0C401867804
S1130CD09070009791F081FC02C080E201C08BE229
S1130CE0B7FC8DE290E0B6010E94B50606C080E331
S1130CF090E0B6010E94B506EA947E14C0F37A949B
S1130D00F201E70DF11D808190E0B6010E94B50665
S1130D107720A9F706C080E290E0B6010E94B506EC
S1130D20FA94FF20C1F737CEF6012681378102C03D
S1130D302FEF3FEFC9012C96E2E10C945B07FC0115
S1130D400590615070400110D8F7809590958E0FF2
S1130D509F1F0895FC016150704001900110D8F765
S1130D60809590958E0F9F1F08950F931F93CF9397
S1130D70DF938C01EB018B8181FF1BC082FF0DC0CF
S1130D802E813F818C819D812817390764F4E88185
S1130D90F9810193F983E88306C0E885F985802FFA
S1130DA00995009731F48E819F8101969F838E83EC
S1130DB002C00FEF1FEFC801DF91CF911F910F9178
S1130DC00895FA01AA27283051F1203181F1E894DD
S1130DD06F936E7F6E5F7F4F8F4F9F4FAF4FB1E02A
S1130DE03ED0B4E03CD0670F781F891F9A1FA11D25
S1130DF0680F791F8A1F911DA11D6A0F711D811D26
S1130E00911DA11D20D009F468943F912AE0269FEA
S1130E1011243019305D3193DEF6CF010895462F49
S1130E204770405D4193B3E00FD0C9F7F6CF462F2A
S1130E304F70405D4A3318F0495D31FD4052419393
S1130E4002D0A9F7EACFB4E0A69597958795779550
S1130E506795BA95C9F700976105710508959B01D7
S1130E60AC010A2E06945795479537952795BA9560
S1130E70C9F7620F731F841F951FA01D08952F9239
S1130E803F924F925F926F927F928F929F92AF9216
S1130E90BF92CF92DF92EF92FF920F931F93CF9363
S1130EA0DF93CDB7DEB7CA1BDB0B0FB6F894DEBFFA
S1130EB00FBECDBF09942A88398848885F846E8420
S1130EC07D848C849B84AA84B984C884DF80EE806A
S1130ED0FD800C811B81AA81B981CE0FD11D0FB673
S1130EE0F894DEBF0FBECDBFED010895F894FFCF97
S1130EF020204269656E76656E69646F73212020D7
S1130F00002020202061205554454320202020200B
S1130F1020004E6976656C3A00202500446973749C
S1110F20616E6369613A0020636D0025640010
S9030000FC
